{
  "openapi": "3.0.3",
  "info": {
    "title": "Ethereum APIs Playground",
    "version": "1.0.0"
  },
  "servers": [
    {
      "url": "https://api.avax.network"
    }
  ],
  "paths": {
    "/ext/bc/C/rpc": {
      "post": {
        "summary": "",
        "description": "This document is autogenerated from the [C-Chain Ethereum APIs](https://docs.avax.network/docs/api-reference/c-chain/api) documentation. It shows examples of how to interact with the Ethereum APIs available on C-Chain.",
        "requestBody": {
          "content": {
            "application/json": {
              "schema": {
                "type": "object",
                "properties": {
                  "id": {
                    "type": "number",
                    "example": 1
                  },
                  "jsonrpc": {
                    "type": "string",
                    "example": "2.0"
                  },
                  "method": {
                    "type": "string",
                    "example": "web3_sha3"
                  },
                  "params": {
                    "type": "array",
                    "items": {
                      "type": "string",
                      "example": "0x736e6f7773746f726d"
                    },
                    "example": [
                      "0x736e6f7773746f726d"
                    ]
                  }
                }
              },
              "examples": {
                "eth_baseFee": {
                  "value": {
                    "id": 1,
                    "jsonrpc": "2.0",
                    "method": "eth_baseFee",
                    "params": []
                  }
                },
                "eth_blockNumber": {
                  "value": {
                    "id": 1,
                    "jsonrpc": "2.0",
                    "method": "eth_blockNumber",
                    "params": []
                  }
                },
                "eth_call": {
                  "value": {
                    "id": 1,
                    "jsonrpc": "2.0",
                    "method": "eth_call",
                    "params": [
                      {
                        "data": "0xc92aecc4",
                        "to": "0x197E90f9FAD81970bA7976f33CbD77088E5D7cf7"
                      },
                      "latest"
                    ]
                  }
                },
                "eth_chainId": {
                  "value": {
                    "id": 1,
                    "jsonrpc": "2.0",
                    "method": "eth_chainId",
                    "params": []
                  }
                },
                "eth_getAssetBalance": {
                  "value": {
                    "id": 1,
                    "jsonrpc": "2.0",
                    "method": "eth_getAssetBalance",
                    "params": [
                      "{{cchainAddress}}",
                      "latest",
                      "2W4XDTMrQJm7YALcnCL4krU7JpoGQQaDkTdn2HbzpsqombHRaB"
                    ]
                  }
                },
                "eth_getBalance": {
                  "value": {
                    "id": 1,
                    "jsonrpc": "2.0",
                    "method": "eth_getBalance",
                    "params": [
                      "{{cchainAddress}}",
                      "latest"
                    ]
                  }
                },
                "eth_getBlockByHash": {
                  "value": {
                    "id": 1,
                    "jsonrpc": "2.0",
                    "method": "eth_getBlockByHash",
                    "params": [
                      "0x40aff31697d62101d521017897880c72759b89d22bd1b055b4ca00a0233e1a13",
                      true
                    ]
                  }
                },
                "eth_getBlockByNumber": {
                  "value": {
                    "id": 1,
                    "jsonrpc": "2.0",
                    "method": "eth_getBlockByNumber",
                    "params": [
                      "0x1e5e0e5",
                      true
                    ]
                  }
                },
                "eth_getChainConfig": {
                  "value": {
                    "id": 1,
                    "jsonrpc": "2.0",
                    "method": "eth_getChainConfig",
                    "params": []
                  }
                },
                "eth_getTransactionByHash": {
                  "value": {
                    "id": 1,
                    "jsonrpc": "2.0",
                    "method": "eth_getTransactionByHash",
                    "params": [
                      "0xabface98767a0827ae375c996ad8448d00b244924540750260f77bffdfc9fe82"
                    ]
                  }
                },
                "eth_getTransactionCount": {
                  "value": {
                    "id": 1,
                    "jsonrpc": "2.0",
                    "method": "eth_getTransactionCount",
                    "params": [
                      "{{cchainAddress}}",
                      "latest"
                    ]
                  }
                },
                "eth_getTransactionReceipt": {
                  "value": {
                    "id": 1,
                    "jsonrpc": "2.0",
                    "method": "eth_getTransactionReceipt",
                    "params": [
                      "0x631dc45342a47d360915ea0d193fc317777f8061fe57b4a3e790e49d26960202"
                    ]
                  }
                },
                "eth_maxPriorityFeePerGas": {
                  "value": {
                    "id": 1,
                    "jsonrpc": "2.0",
                    "method": "eth_maxPriorityFeePerGas",
                    "params": []
                  }
                },
                "eth_sendRawTransaction": {
                  "value": {
                    "id": 1,
                    "jsonrpc": "2.0",
                    "method": "eth_sendRawTransaction",
                    "params": [
                      "0xf8628080825208941c5b0e12e90e9c52235babad76cfccab2519bb958080830150efa0308ca8002f3df1a468eea9973d2d618eb866e2ef0a57cba4d34efb3025b70a0aa0592b7b0a803e7b70ec26dd74ab85aa71126198eff5552e5be638e6e26a455ee0"
                    ]
                  }
                },
                "eth_signTransaction": {
                  "value": {
                    "id": 1,
                    "jsonrpc": "2.0",
                    "method": "eth_signTransaction",
                    "params": [
                      {
                        "from": "0xa64b27635c967dfe9674926bc004626163ddce97",
                        "gas": "0x5208",
                        "gasPrice": "0x0",
                        "nonce": "0x0",
                        "to": "0x1c5b0e12e90e9c52235babad76cfccab2519bb95",
                        "value": "0x0"
                      }
                    ]
                  }
                },
                "net_version": {
                  "value": {
                    "id": 1,
                    "jsonrpc": "2.0",
                    "method": "net_version",
                    "params": []
                  }
                },
                "personal_importRawKey": {
                  "value": {
                    "id": 1,
                    "jsonrpc": "2.0",
                    "method": "personal_importRawKey",
                    "params": [
                      "627119bb8286874a15d562d32829613311a678da26ca7a6a785ec4ad85937d07",
                      "{{cchainPassphrase}}"
                    ]
                  }
                },
                "personal_listAccounts": {
                  "value": {
                    "id": 1,
                    "jsonrpc": "2.0",
                    "method": "personal_listAccounts",
                    "params": []
                  }
                },
                "personal_newAccount": {
                  "value": {
                    "id": 1,
                    "jsonrpc": "2.0",
                    "method": "personal_newAccount",
                    "params": [
                      "cheese"
                    ]
                  }
                },
                "personal_unlockAccount": {
                  "value": {
                    "id": 1,
                    "jsonrpc": "2.0",
                    "method": "personal_unlockAccount",
                    "params": [
                      "{{cchainAddress}}",
                      "{{cchainPassphrase}}",
                      600
                    ]
                  }
                },
                "txpool_status": {
                  "value": {
                    "id": 1,
                    "jsonrpc": "2.0",
                    "method": "txpool_status",
                    "params": []
                  }
                },
                "web3_clientVersion": {
                  "value": {
                    "id": 1,
                    "jsonrpc": "2.0",
                    "method": "web3_clientVersion",
                    "params": []
                  }
                },
                "web3_sha3": {
                  "value": {
                    "id": 1,
                    "jsonrpc": "2.0",
                    "method": "web3_sha3",
                    "params": [
                      "0x736e6f7773746f726d"
                    ]
                  }
                }
              }
            }
          }
        },
        "responses": {
          "200": {
            "description": ""
          }
        }
      }
    }
}
}